01202004280120853251003RECAUDACIO                                                                                                                                                                       
0210121342847423969                                    20200427OK_70001222020042714483320200428085325100300014117369RECAUDACIO                                0000000021000   00                        
0207000122010000000021000                                                                                                                                                                               
0210154396039432326                                    20200428OK_70001362020042813461920200428085325100300014117369RECAUDACIO                                0000000067916   00                        
0207000136010000000067916                                                                                                                                                                               
0210129173262430100                                    20200428OK_70001432020042810044820200428085325100300014117369RECAUDACIO                                0000000370862   00                        
0207000143010000000370862                                                                                                                                                                               
0210184257149425672                                    20200427OK_70001892020042717372420200428085325100300014117369RECAUDACIO                                0000000077330   00                        
0207000189010000000077330                                                                                                                                                                               
0210189371810430700                                    20200428OK_70002072020042811101820200428085325100300014117369RECAUDACIO                                0000000070000   00                        
0207000207010000000070000                                                                                                                                                                               
0210188370179431200                                    20200428OK_70003362020042812050520200428085325100300014117369RECAUDACIO                                0000000053854   00                        
0207000336010000000053854                                                                                                                                                                               
0210262725383423974                                    20200427OK_70003762020042714484120200428085325100300014117369RECAUDACIO                                0000000102263   00                        
0207000376010000000102263                                                                                                                                                                               
0210080467990431189                                    20200428OK_70004192020042812050820200428085325100300014117369RECAUDACIO                                0000000053839   00                        
0207000419010000000053839                                                                                                                                                                               
0210159552535426835                                    20200427OK_70005882020042719304320200428085325100300014117369RECAUDACIO                                0000000030000   00                        
0207000588010000000030000                                                                                                                                                                               
0210173652038428794                                    20200427OK_70006282020042723324020200428085325100300014117369RECAUDACIO                                0000000109519   00                        
0207000628010000000109519                                                                                                                                                                               
0210129973994426824                                    20200427OK_70007262020042719304820200428085325100300014117369RECAUDACIO                                0000000015000   00                        
0207000726010000000015000                                                                                                                                                                               
0210179554623429533                                    20200428OK_70007902020042808242820200428085325100300014117369RECAUDACIO                                0000000021431   00                        
0207000790010000000021431                                                                                                                                                                               
0210124786673426832                                    20200427OK_70008042020042719305120200428085325100300014117369RECAUDACIO                                0000000135000   00                        
0207000804010000000135000                                                                                                                                                                               
021018213192K430696                                    20200428OK_70008562020042811104220200428085325100300014117369RECAUDACIO                                0000000054230   00                        
0207000856010000000054230                                                                                                                                                                               
021018137554K431218                                    20200428OK_70008632020042812052220200428085325100300014117369RECAUDACIO                                0000000098189   00                        
0207000863010000000098189                                                                                                                                                                               
021016338891K428058                                    20200427OK_70008782020042721464720200428085325100300014117369RECAUDACIO                                0000000028890   00                        
0207000878010000000028890                                                                                                                                                                               
0210126185782431775                                    20200428OK_70010782020042812554920200428085325100300014117369RECAUDACIO                                0000000071353   00                        
0207001078010000000071353                                                                                                                                                                               
021026425714K428062                                    20200427OK_70012342020042721470520200428085325100300014117369RECAUDACIO                                0000000031467   00                        
0207001234010000000031467                                                                                                                                                                               
0210151741541426230                                    20200427OK_70012722020042718332620200428085325100300014117369RECAUDACIO                                0000000081435   00                        
0207001272010000000081435                                                                                                                                                                               
0210114430358425673                                    20200427OK_70012872020042717380020200428085325100300014117369RECAUDACIO                                0000000100000   00                        
0207001287010000000100000                                                                                                                                                                               
0210258076931427427                                    20200427OK_70013102020042720352120200428085325100300014117369RECAUDACIO                                0000000066132   00                        
0207001310010000000066132                                                                                                                                                                               
0210267317577430115                                    20200428OK_70013832020042810054220200428085325100300014117369RECAUDACIO                                0000000047000   00                        
0207001383010000000047000                                                                                                                                                                               
0210120375334423979                                    20200427OK_70015582020042714492020200428085325100300014117369RECAUDACIO                                0000000102023   00                        
0207001558010000000102023                                                                                                                                                                               
0210150632625428807                                    20200427OK_70017212020042723343320200428085325100300014117369RECAUDACIO                                0000000106650   00                        
0207001721010000000106650                                                                                                                                                                               
0210185243532430105                                    20200428OK_70017582020042810060020200428085325100300014117369RECAUDACIO                                0000000077000   00                        
0207001758010000000077000                                                                                                                                                                               
0210196970576431783                                    20200428OK_70018032020042812560820200428085325100300014117369RECAUDACIO                                0000000100000   00                        
0207001803010000000100000                                                                                                                                                                               
0210164190706430111                                    20200428OK_70018282020042810060320200428085325100300014117369RECAUDACIO                                0000000005000   00                        
0207001828010000000005000                                                                                                                                                                               
0210154173870425684                                    20200427OK_70020072020042717382420200428085325100300014117369RECAUDACIO                                0000000056973   00                        
0207002007010000000056973                                                                                                                                                                               
0210268367535426849                                    20200427OK_70020512020042719313520200428085325100300014117369RECAUDACIO                                0000000045000   00                        
0207002051010000000045000                                                                                                                                                                               
0210180778268426226                                    20200427OK_70020662020042718335220200428085325100300014117369RECAUDACIO                                0000000018369   00                        
0207002066010000000018369                                                                                                                                                                               
0210198620238428812                                    20200427OK_70021782020042723352320200428085325100300014117369RECAUDACIO                                0000000038195   00                        
0207002178010000000038195                                                                                                                                                                               
021027104948K424541                                    20200427OK_70021862020042715453920200428085325100300014117369RECAUDACIO                                0000000017699   00                        
0207002186010000000017699                                                                                                                                                                               
0210246409064430116                                    20200428OK_70022192020042810061920200428085325100300014117369RECAUDACIO                                0000000027748   00                        
0207002219010000000027748                                                                                                                                                                               
0210257604160431215                                    20200428OK_70022482020042812060420200428085325100300014117369RECAUDACIO                                0000000030000   00                        
0207002248010000000030000                                                                                                                                                                               
0210162800205431788                                    20200428OK_70022982020042812562220200428085325100300014117369RECAUDACIO                                0000000050000   00                        
0207002298010000000050000                                                                                                                                                                               
021008800910K423983                                    20200427OK_70023862020042714494820200428085325100300014117369RECAUDACIO                                0000000092000   00                        
0207002386010000000092000                                                                                                                                                                               
0210194842953430124                                    20200428OK_70024312020042810062920200428085325100300014117369RECAUDACIO                                0000000055492   00                        
0207002431010000000055492                                                                                                                                                                               
0210134291206426843                                    20200427OK_70024522020042719314920200428085325100300014117369RECAUDACIO                                0000000010700   00                        
0207002452010000000010700                                                                                                                                                                               
0210152364520428797                                    20200427OK_70024842020042723355520200428085325100300014117369RECAUDACIO                                0000000100000   00                        
0207002484010000000100000                                                                                                                                                                               
0210268744924428817                                    20200427OK_70026202020042723361120200428085325100300014117369RECAUDACIO                                0000000020000   00                        
0207002620010000000020000                                                                                                                                                                               
0210120707248430125                                    20200428OK_70026542020042810063820200428085325100300014117369RECAUDACIO                                0000000100000   00                        
0207002654010000000100000                                                                                                                                                                               
0210264737974425686                                    20200427OK_70026812020042717384920200428085325100300014117369RECAUDACIO                                0000000016589   00                        
0207002681010000000016589                                                                                                                                                                               
0210125247407425112                                    20200427OK_70027622020042716423320200428085325100300014117369RECAUDACIO                                0000000097608   00                        
0207002762010000000097608                                                                                                                                                                               
0210138054888431798                                    20200428OK_70028432020042812563820200428085325100300014117369RECAUDACIO                                0000000000020   00                        
0207002843010000000000020                                                                                                                                                                               
0210160568321430119                                    20200428OK_70029902020042810065320200428085325100300014117369RECAUDACIO                                0000000044000   00                        
0207002990010000000044000                                                                                                                                                                               
0210150211271431209                                    20200428OK_70030322020042812062920200428085325100300014117369RECAUDACIO                                0000000090000   00                        
0207003032010000000090000                                                                                                                                                                               
021015886603K426854                                    20200427OK_70030442020042719320920200428085325100300014117369RECAUDACIO                                0000000074793   00                        
0207003044010000000074793                                                                                                                                                                               
0210267990069426848                                    20200427OK_70030902020042719321220200428085325100300014117369RECAUDACIO                                0000000025816   00                        
0207003090010000000025816                                                                                                                                                                               
021026783170K429543                                    20200428OK_70030922020042808280020200428085325100300014117369RECAUDACIO                                0000000026653   00                        
0207003092010000000026653                                                                                                                                                                               
0210266677332431234                                    20200428OK_70031822020042812063320200428085325100300014117369RECAUDACIO                                0000000067867   00                        
0207003182010000000067867                                                                                                                                                                               
0210165337700428076                                    20200427OK_70032092020042721483720200428085325100300014117369RECAUDACIO                                0000000040000   00                        
0207003209010000000040000                                                                                                                                                                               
0210127020957428067                                    20200427OK_70032582020042721483920200428085325100300014117369RECAUDACIO                                0000000084395   00                        
0207003258010000000084395                                                                                                                                                                               
0210163610760431782                                    20200428OK_70032672020042812565120200428085325100300014117369RECAUDACIO                                0000000061385   00                        
0207003267010000000061385                                                                                                                                                                               
0210266610017426859                                    20200427OK_70034112020042719322320200428085325100300014117369RECAUDACIO                                0000000196028   00                        
0207003411010000000196028                                                                                                                                                                               
0210155460636427437                                    20200427OK_70034252020042720364620200428085325100300014117369RECAUDACIO                                0000000030000   00                        
0207003425010000000030000                                                                                                                                                                               
0210197592060428077                                    20200427OK_70035442020042721485320200428085325100300014117369RECAUDACIO                                0000000000005   00                        
0207003544010000000000005                                                                                                                                                                               
0210151484425424549                                    20200427OK_70035672020042715462620200428085325100300014117369RECAUDACIO                                0000000078393   00                        
0207003567010000000078393                                                                                                                                                                               
0210151320759423985                                    20200427OK_70036432020042714502620200428085325100300014117369RECAUDACIO                                0000000036427   00                        
0207003643010000000036427                                                                                                                                                                               
0210155724625427438                                    20200427OK_70036642020042720365720200428085325100300014117369RECAUDACIO                                0000000069661   00                        
0210102681002430706                                    20200428OK_70036642020042811122420200428085325100300014117369RECAUDACIO                                0000000068423   00                        
0207003664020000000138084                                                                                                                                                                               
0210178542060430703                                    20200428OK_70037522020042811122820200428085325100300014117369RECAUDACIO                                0000000065900   00                        
0207003752010000000065900                                                                                                                                                                               
0210130050107432347                                    20200428OK_70039022020042813482020200428085325100300014117369RECAUDACIO                                0000000040053   00                        
0207003902010000000040053                                                                                                                                                                               
0210189493428428831                                    20200427OK_70039102020042723383020200428085325100300014117369RECAUDACIO                                0000000003000   00                        
0207003910010000000003000                                                                                                                                                                               
0210266827733425119                                    20200427OK_70039452020042716431320200428085325100300014117369RECAUDACIO                                0000000002402   00                        
0207003945010000000002402                                                                                                                                                                               
0210152395876427436                                    20200427OK_70039732020042720370920200428085325100300014117369RECAUDACIO                                0000000025000   00                        
0207003973010000000025000                                                                                                                                                                               
0210178128752425120                                    20200427OK_70040852020042716431920200428085325100300014117369RECAUDACIO                                0000000009437   00                        
0207004085010000000009437                                                                                                                                                                               
0210252497692429549                                    20200428OK_70041382020042808293620200428085325100300014117369RECAUDACIO                                0000000018133   00                        
0207004138010000000018133                                                                                                                                                                               
0210181262958432332                                    20200428OK_70041502020042813482820200428085325100300014117369RECAUDACIO                                0000000014574   00                        
0207004150010000000014574                                                                                                                                                                               
021026953589K423977                                    20200427OK_70041542020042714504420200428085325100300014117369RECAUDACIO                                0000000160000   00                        
0207004154010000000160000                                                                                                                                                                               
0210269775106426268                                    20200427OK_70042992020042718350520200428085325100300014117369RECAUDACIO                                0000000054742   00                        
0207004299010000000054742                                                                                                                                                                               
0210190525619429552                                    20200428OK_70043762020042808295620200428085325100300014117369RECAUDACIO                                0000000007888   00                        
0207004376010000000007888                                                                                                                                                                               
0210173614454431211                                    20200428OK_70044152020042812071220200428085325100300014117369RECAUDACIO                                0000000026529   00                        
0207004415010000000026529                                                                                                                                                                               
0210156147958428816                                    20200427OK_70044672020042723393120200428085325100300014117369RECAUDACIO                                0000000030000   00                        
0207004467010000000030000                                                                                                                                                                               
0210268744924428836                                    20200427OK_70044772020042723393220200428085325100300014117369RECAUDACIO                                0000000094235   00                        
0207004477010000000094235                                                                                                                                                                               
0210189837488423992                                    20200427OK_70045072020042714505620200428085325100300014117369RECAUDACIO                                0000000126816   00                        
0207004507010000000126816                                                                                                                                                                               
021016547788K430137                                    20200428OK_70047362020042810081220200428085325100300014117369RECAUDACIO                                0000000047569   00                        
0207004736010000000047569                                                                                                                                                                               
0210177330884428840                                    20200427OK_70048052020042723401120200428085325100300014117369RECAUDACIO                                0000000002211   00                        
0207004805010000000002211                                                                                                                                                                               
0210186153391428839                                    20200427OK_70048162020042723401220200428085325100300014117369RECAUDACIO                                0000000022532   00                        
021016517738K430135                                    20200428OK_70048162020042810081620200428085325100300014117369RECAUDACIO                                0000000077489   00                        
0207004816020000000100021                                                                                                                                                                               
0210143456978428091                                    20200427OK_70048262020042721495720200428085325100300014117369RECAUDACIO                                0000000215901   00                        
0207004826010000000215901                                                                                                                                                                               
021011924031K431230                                    20200428OK_70049092020042812072620200428085325100300014117369RECAUDACIO                                0000000050000   00                        
0207004909010000000050000                                                                                                                                                                               
0210265376223430716                                    20200428OK_70050252020042811131720200428085325100300014117369RECAUDACIO                                0000000061558   00                        
0207005025010000000061558                                                                                                                                                                               
0210042991368425695                                    20200427OK_70050412020042717400820200428085325100300014117369RECAUDACIO                                0000000043996   00                        
0207005041010000000043996                                                                                                                                                                               
0210117083721428841                                    20200427OK_70050592020042723403820200428085325100300014117369RECAUDACIO                                0000000066000   00                        
0210157355082431811                                    20200428OK_70050592020042812574720200428085325100300014117369RECAUDACIO                                0000000020000   00                        
0207005059020000000086000                                                                                                                                                                               
0210202435556426279                                    20200427OK_70051492020042718353220200428085325100300014117369RECAUDACIO                                0000000007648   00                        
0207005149010000000007648                                                                                                                                                                               
0210257022080424552                                    20200427OK_70051522020042715471820200428085325100300014117369RECAUDACIO                                0000000053757   00                        
0207005152010000000053757                                                                                                                                                                               
0210226998411431807                                    20200428OK_70052252020042812575220200428085325100300014117369RECAUDACIO                                0000000030500   00                        
0207005225010000000030500                                                                                                                                                                               
0210179337932428838                                    20200427OK_70052662020042723405720200428085325100300014117369RECAUDACIO                                0000000018980   00                        
0207005266010000000018980                                                                                                                                                                               
0210150247144428833                                    20200427OK_70052802020042723405820200428085325100300014117369RECAUDACIO                                0000000052073   00                        
0207005280010000000052073                                                                                                                                                                               
0210268187871426866                                    20200427OK_70053202020042719333220200428085325100300014117369RECAUDACIO                                0000000050000   00                        
0207005320010000000050000                                                                                                                                                                               
0210132946728426876                                    20200427OK_70054162020042719333520200428085325100300014117369RECAUDACIO                                0000000038508   00                        
0207005416010000000038508                                                                                                                                                                               
0210169513740428845                                    20200427OK_70055132020042723412220200428085325100300014117369RECAUDACIO                                0000000021739   00                        
0207005513010000000021739                                                                                                                                                                               
0210271468318427455                                    20200427OK_70055162020042720381520200428085325100300014117369RECAUDACIO                                0000000026980   00                        
0207005516010000000026980                                                                                                                                                                               
0210252454411430140                                    20200428OK_70058422020042810090020200428085325100300014117369RECAUDACIO                                0000000031268   00                        
0207005842010000000031268                                                                                                                                                                               
0210191712218426884                                    20200427OK_70058862020042719335320200428085325100300014117369RECAUDACIO                                0000000032999   00                        
0207005886010000000032999                                                                                                                                                                               
0210264115248426270                                    20200427OK_70058962020042718355720200428085325100300014117369RECAUDACIO                                0000000032892   00                        
0207005896010000000032892                                                                                                                                                                               
0210166544726431254                                    20200428OK_70059262020042812075920200428085325100300014117369RECAUDACIO                                0000000028902   00                        
0207005926010000000028902                                                                                                                                                                               
0210099839449426267                                    20200427OK_70059822020042718360020200428085325100300014117369RECAUDACIO                                0000000057000   00                        
0207005982010000000057000                                                                                                                                                                               
021018216657K425702                                    20200427OK_70061592020042717404520200428085325100300014117369RECAUDACIO                                0000000043556   00                        
0207006159010000000043556                                                                                                                                                                               
0210113429216431805                                    20200428OK_70064572020042812582820200428085325100300014117369RECAUDACIO                                0000000005030   00                        
0207006457010000000005030                                                                                                                                                                               
0210259463386424562                                    20200427OK_70064912020042715480220200428085325100300014117369RECAUDACIO                                0000000026211   00                        
0207006491010000000026211                                                                                                                                                                               
0210120681834430113                                    20200428OK_70065322020042810093120200428085325100300014117369RECAUDACIO                                0000000067449   00                        
0207006532010000000067449                                                                                                                                                                               
0210106357803425704                                    20200427OK_70066132020042717405920200428085325100300014117369RECAUDACIO                                0000000092394   00                        
0207006613010000000092394                                                                                                                                                                               
0210065868172425700                                    20200427OK_70068562020042717410720200428085325100300014117369RECAUDACIO                                0000000073826   00                        
0207006856010000000073826                                                                                                                                                                               
0210113807458424560                                    20200427OK_70070112020042715482020200428085325100300014117369RECAUDACIO                                0000000030000   00                        
0207007011010000000030000                                                                                                                                                                               
0210179935422425130                                    20200427OK_70070862020042716450120200428085325100300014117369RECAUDACIO                                0000000032163   00                        
0207007086010000000032163                                                                                                                                                                               
0210168793812431256                                    20200428OK_70071132020042812083520200428085325100300014117369RECAUDACIO                                0000000060000   00                        
0207007113010000000060000                                                                                                                                                                               
0210048113621430721                                    20200428OK_70071962020042811143820200428085325100300014117369RECAUDACIO                                0000000050000   00                        
0207007196010000000050000                                                                                                                                                                               
0210269770945426877                                    20200427OK_70072142020042719344120200428085325100300014117369RECAUDACIO                                0000000061219   00                        
0207007214010000000061219                                                                                                                                                                               
0210100342766429564                                    20200428OK_70072252020042808340620200428085325100300014117369RECAUDACIO                                0000000065260   00                        
0207007225010000000065260                                                                                                                                                                               
0210266491670428102                                    20200427OK_70072382020042721515320200428085325100300014117369RECAUDACIO                                0000000041858   00                        
0207007238010000000041858                                                                                                                                                                               
0210267213690426894                                    20200427OK_70073722020042719344620200428085325100300014117369RECAUDACIO                                0000000029118   00                        
0207007372010000000029118                                                                                                                                                                               
0210138443388431250                                    20200428OK_70074032020042812084420200428085325100300014117369RECAUDACIO                                0000000040000   00                        
0207007403010000000040000                                                                                                                                                                               
0210261117118431264                                    20200428OK_70074892020042812084720200428085325100300014117369RECAUDACIO                                0000000088000   00                        
0207007489010000000088000                                                                                                                                                                               
0210121622734427462                                    20200427OK_70075042020042720393920200428085325100300014117369RECAUDACIO                                0000000043129   00                        
0207007504010000000043129                                                                                                                                                                               
0210197698586430149                                    20200428OK_70075492020042810101620200428085325100300014117369RECAUDACIO                                0000000044983   00                        
0207007549010000000044983                                                                                                                                                                               
021017359741K431259                                    20200428OK_70076062020042812085120200428085325100300014117369RECAUDACIO                                0000000015000   00                        
0207007606010000000015000                                                                                                                                                                               
0210266617798428101                                    20200427OK_70076982020042721521620200428085325100300014117369RECAUDACIO                                0000000064079   00                        
0207007698010000000064079                                                                                                                                                                               
021026159563K432356                                    20200428OK_70077052020042813501820200428085325100300014117369RECAUDACIO                                0000000034178   00                        
0207007705010000000034178                                                                                                                                                                               
0210168585276428864                                    20200427OK_70077172020042723452220200428085325100300014117369RECAUDACIO                                0000000000052   00                        
0207007717010000000000052                                                                                                                                                                               
0210114673927428110                                    20200427OK_70077542020042721521920200428085325100300014117369RECAUDACIO                                0000000030000   00                        
0207007754010000000030000                                                                                                                                                                               
0210182599956427464                                    20200427OK_70077792020042720395120200428085325100300014117369RECAUDACIO                                0000000018295   00                        
0207007779010000000018295                                                                                                                                                                               
0210068438152424010                                    20200427OK_70077852020042714525220200428085325100300014117369RECAUDACIO                                0000000162325   00                        
0207007785010000000162325                                                                                                                                                                               
0210262811441426896                                    20200427OK_70078082020042719350320200428085325100300014117369RECAUDACIO                                0000000046678   00                        
0207007808010000000046678                                                                                                                                                                               
0210191614429425707                                    20200427OK_70078312020042717414020200428085325100300014117369RECAUDACIO                                0000000074297   00                        
0207007831010000000074297                                                                                                                                                                               
0210180470689426897                                    20200427OK_70079362020042719350720200428085325100300014117369RECAUDACIO                                0000000308020   00                        
0207007936010000000308020                                                                                                                                                                               
0210265670970431823                                    20200428OK_70080042020042812591420200428085325100300014117369RECAUDACIO                                0000000049668   00                        
0207008004010000000049668                                                                                                                                                                               
0210270923933427457                                    20200427OK_70080402020042720400320200428085325100300014117369RECAUDACIO                                0000000072970   00                        
0207008040010000000072970                                                                                                                                                                               
0210199024507430733                                    20200428OK_70080412020042811151020200428085325100300014117369RECAUDACIO                                0000000045000   00                        
0207008041010000000045000                                                                                                                                                                               
0210188037526427471                                    20200427OK_70080712020042720400420200428085325100300014117369RECAUDACIO                                0000000010481   00                        
0207008071010000000010481                                                                                                                                                                               
0210258641612428106                                    20200427OK_70083162020042721524720200428085325100300014117369RECAUDACIO                                0000000041265   00                        
0207008316010000000041265                                                                                                                                                                               
0210191162064424004                                    20200427OK_70083202020042714530920200428085325100300014117369RECAUDACIO                                0000000194129   00                        
0207008320010000000194129                                                                                                                                                                               
0210194581041432364                                    20200428OK_70084062020042813504020200428085325100300014117369RECAUDACIO                                0000000008170   00                        
0207008406010000000008170                                                                                                                                                                               
0210119787084431265                                    20200428OK_70084602020042812091820200428085325100300014117369RECAUDACIO                                0000000015744   00                        
0207008460010000000015744                                                                                                                                                                               
0210179388642429568                                    20200428OK_70086822020042808361320200428085325100300014117369RECAUDACIO                                0000000060000   00                        
0207008682010000000060000                                                                                                                                                                               
0210119611539426891                                    20200427OK_70086842020042719353520200428085325100300014117369RECAUDACIO                                0000000293793   00                        
0207008684010000000293793                                                                                                                                                                               
0210256753995428104                                    20200427OK_70086892020042721530420200428085325100300014117369RECAUDACIO                                0000000029520   00                        
0207008689010000000029520                                                                                                                                                                               
0210116804581424578                                    20200427OK_70086972020042715491620200428085325100300014117369RECAUDACIO                                0000000090000   00                        
0207008697010000000090000                                                                                                                                                                               
0210263869656430732                                    20200428OK_70089472020042811154320200428085325100300014117369RECAUDACIO                                0000000026988   00                        
0207008947010000000026988                                                                                                                                                                               
0210264497183431273                                    20200428OK_70089902020042812093520200428085325100300014117369RECAUDACIO                                0000000052403   00                        
0207008990010000000052403                                                                                                                                                                               
0210179130130428871                                    20200427OK_70090692020042723475320200428085325100300014117369RECAUDACIO                                0000000051839   00                        
0207009069010000000051839                                                                                                                                                                               
0210170069307430738                                    20200428OK_70090942020042811154820200428085325100300014117369RECAUDACIO                                0000000092544   00                        
0207009094010000000092544                                                                                                                                                                               
0210265088333432372                                    20200428OK_70091092020042813510220200428085325100300014117369RECAUDACIO                                0000000056271   00                        
0207009109010000000056271                                                                                                                                                                               
0210113265590431826                                    20200428OK_70091692020042812594920200428085325100300014117369RECAUDACIO                                0000000015090   00                        
0207009169010000000015090                                                                                                                                                                               
0210265359345428114                                    20200427OK_70091822020042721532820200428085325100300014117369RECAUDACIO                                0000000045000   00                        
0207009182010000000045000                                                                                                                                                                               
0210192825806428875                                    20200427OK_70091892020042723480720200428085325100300014117369RECAUDACIO                                0000000043103   00                        
0207009189010000000043103                                                                                                                                                                               
0210270721036426907                                    20200427OK_70092232020042719355620200428085325100300014117369RECAUDACIO                                0000000090000   00                        
0207009223010000000090000                                                                                                                                                                               
0210195531366427472                                    20200427OK_70093002020042720405620200428085325100300014117369RECAUDACIO                                0000000053963   00                        
0207009300010000000053963                                                                                                                                                                               
0210137084341425157                                    20200427OK_70094092020042716462220200428085325100300014117369RECAUDACIO                                0000000050000   00                        
0207009409010000000050000                                                                                                                                                                               
0210179078414425156                                    20200427OK_70094582020042716462420200428085325100300014117369RECAUDACIO                                0000000002000   00                        
0207009458010000000002000                                                                                                                                                                               
0210104034802431274                                    20200428OK_70094592020042812095020200428085325100300014117369RECAUDACIO                                0000000098994   00                        
0207009459010000000098994                                                                                                                                                                               
0210175779841426300                                    20200427OK_70097242020042718380120200428085325100300014117369RECAUDACIO                                0000000164998   00                        
0207009724010000000164998                                                                                                                                                                               
0210132502471427480                                    20200427OK_70097352020042720411420200428085325100300014117369RECAUDACIO                                0000000022324   00                        
0207009735010000000022324                                                                                                                                                                               
021019875157K430169                                    20200428OK_70098142020042810115520200428085325100300014117369RECAUDACIO                                0000000019942   00                        
0207009814010000000019942                                                                                                                                                                               
0210188441254425721                                    20200427OK_70098312020042717424620200428085325100300014117369RECAUDACIO                                0000000022365   00                        
0207009831010000000022365                                                                                                                                                                               
0210151993222424587                                    20200427OK_70099432020042715495620200428085325100300014117369RECAUDACIO                                0000000109484   00                        
0207009943010000000109484                                                                                                                                                                               
0210267547270424016                                    20200427OK_70100122020042714540320200428085325100300014117369RECAUDACIO                                0000000055116   00                        
0207010012010000000055116                                                                                                                                                                               
0210266498241430740                                    20200428OK_70102662020042811163220200428085325100300014117369RECAUDACIO                                0000000004789   00                        
0207010266010000000004789                                                                                                                                                                               
0210141535188431276                                    20200428OK_70102812020042812101620200428085325100300014117369RECAUDACIO                                0000000152296   00                        
0207010281010000000152296                                                                                                                                                                               
0210263115244426305                                    20200427OK_70102822020042718382020200428085325100300014117369RECAUDACIO                                0000000032000   00                        
0207010282010000000032000                                                                                                                                                                               
0210263569245432365                                    20200428OK_70104382020042813514420200428085325100300014117369RECAUDACIO                                0000000040671   00                        
0207010438010000000040671                                                                                                                                                                               
021026014930K428876                                    20200427OK_70105202020042723510020200428085325100300014117369RECAUDACIO                                0000000025069   00                        
0207010520010000000025069                                                                                                                                                                               
0210157639161427479                                    20200427OK_70105252020042720414720200428085325100300014117369RECAUDACIO                                0000000056407   00                        
0207010525010000000056407                                                                                                                                                                               
0210268277617431272                                    20200428OK_70105492020042812102520200428085325100300014117369RECAUDACIO                                0000000024344   00                        
0207010549010000000024344                                                                                                                                                                               
0210164068250430168                                    20200428OK_70105552020042810122520200428085325100300014117369RECAUDACIO                                0000000023630   00                        
0207010555010000000023630                                                                                                                                                                               
0210101963357424017                                    20200427OK_70106432020042714542420200428085325100300014117369RECAUDACIO                                0000000026424   00                        
0207010643010000000026424                                                                                                                                                                               
021012805961K429581                                    20200428OK_70107572020042808390620200428085325100300014117369RECAUDACIO                                0000000016530   00                        
0207010757010000000016530                                                                                                                                                                               
0210144499182431285                                    20200428OK_70108522020042812103420200428085325100300014117369RECAUDACIO                                0000000010849   00                        
0207010852010000000010849                                                                                                                                                                               
021016135855K429583                                    20200428OK_70109152020042808392020200428085325100300014117369RECAUDACIO                                0000000040000   00                        
0207010915010000000040000                                                                                                                                                                               
0210102914325432374                                    20200428OK_70111072020042813520520200428085325100300014117369RECAUDACIO                                0000000029532   00                        
0207011107010000000029532                                                                                                                                                                               
021017294616K431286                                    20200428OK_70111592020042812104420200428085325100300014117369RECAUDACIO                                0000000007488   00                        
0207011159010000000007488                                                                                                                                                                               
0210162789570426919                                    20200427OK_70112712020042719371320200428085325100300014117369RECAUDACIO                                0000000023783   00                        
0207011271010000000023783                                                                                                                                                                               
0210265065414429584                                    20200428OK_70113252020042808395520200428085325100300014117369RECAUDACIO                                0000000020000   00                        
0207011325010000000020000                                                                                                                                                                               
0210264561353427490                                    20200427OK_70113312020042720422120200428085325100300014117369RECAUDACIO                                0000000025000   00                        
0207011331010000000025000                                                                                                                                                                               
0210222442710426925                                    20200427OK_70113392020042719371520200428085325100300014117369RECAUDACIO                                0000000020000   00                        
0207011339010000000020000                                                                                                                                                                               
0210263130286425166                                    20200427OK_70114162020042716473120200428085325100300014117369RECAUDACIO                                0000000032081   00                        
0207011416010000000032081                                                                                                                                                                               
0210268312676426294                                    20200427OK_70115392020042718390220200428085325100300014117369RECAUDACIO                                0000000027894   00                        
0207011539010000000027894                                                                                                                                                                               
0210182599956427491                                    20200427OK_70115772020042720423220200428085325100300014117369RECAUDACIO                                0000000018923   00                        
0207011577010000000018923                                                                                                                                                                               
0210134984880432385                                    20200428OK_70116562020042813522120200428085325100300014117369RECAUDACIO                                0000000069256   00                        
0207011656010000000069256                                                                                                                                                                               
0210081920664426302                                    20200427OK_70117302020042718390820200428085325100300014117369RECAUDACIO                                0000000075019   00                        
0207011730010000000075019                                                                                                                                                                               
0210186736443425171                                    20200427OK_70118092020042716474420200428085325100300014117369RECAUDACIO                                0000000047236   00                        
0207011809010000000047236                                                                                                                                                                               
0210263808320431836                                    20200428OK_70120162020042813011520200428085325100300014117369RECAUDACIO                                0000000009500   00                        
0207012016010000000009500                                                                                                                                                                               
0210169632782429585                                    20200428OK_70122902020042808411120200428085325100300014117369RECAUDACIO                                0000000052347   00                        
0207012290010000000052347                                                                                                                                                                               
0210268583424430182                                    20200428OK_70123652020042810134320200428085325100300014117369RECAUDACIO                                0000000030853   00                        
0207012365010000000030853                                                                                                                                                                               
0210074553125431293                                    20200428OK_70123692020042812112320200428085325100300014117369RECAUDACIO                                0000000180000   00                        
0207012369010000000180000                                                                                                                                                                               
0210122487679428141                                    20200427OK_70124052020042721561020200428085325100300014117369RECAUDACIO                                0000000022645   00                        
0207012405010000000022645                                                                                                                                                                               
021010414005K427492                                    20200427OK_70124512020042720431020200428085325100300014117369RECAUDACIO                                0000000100000   00                        
0207012451010000000100000                                                                                                                                                                               
0210128926763426924                                    20200427OK_70124842020042719375620200428085325100300014117369RECAUDACIO                                0000000043693   00                        
0207012484010000000043693                                                                                                                                                                               
0210258079957424595                                    20200427OK_70125142020042715511920200428085325100300014117369RECAUDACIO                                0000000060000   00                        
0207012514010000000060000                                                                                                                                                                               
0210178904124426923                                    20200427OK_70125162020042719375720200428085325100300014117369RECAUDACIO                                0000000053939   00                        
0207012516010000000053939                                                                                                                                                                               
0210103572452425175                                    20200427OK_70125432020042716480820200428085325100300014117369RECAUDACIO                                0000000075000   00                        
0207012543010000000075000                                                                                                                                                                               
0210092287661428125                                    20200427OK_70128572020042721563320200428085325100300014117369RECAUDACIO                                0000000012725   00                        
0207012857010000000012725                                                                                                                                                                               
0210129748184426318                                    20200427OK_70129562020042718394820200428085325100300014117369RECAUDACIO                                0000000062143   00                        
0207012956010000000062143                                                                                                                                                                               
0210140539562430194                                    20200428OK_70130382020042810141220200428085325100300014117369RECAUDACIO                                0000000039488   00                        
0207013038010000000039488                                                                                                                                                                               
0210150449251424033                                    20200427OK_70130652020042714554420200428085325100300014117369RECAUDACIO                                0000000043822   00                        
0207013065010000000043822                                                                                                                                                                               
0210155376228428896                                    20200427OK_70131112020042723564220200428085325100300014117369RECAUDACIO                                0000000010700   00                        
0207013111010000000010700                                                                                                                                                                               
0210173639864430189                                    20200428OK_70132972020042810142220200428085325100300014117369RECAUDACIO                                0000000053778   00                        
0207013297010000000053778                                                                                                                                                                               
0210151542948423547                                    20200427OK_70133142020042714000520200428085325100300014117369RECAUDACIO                                0000000080000   00                        
0207013314010000000080000                                                                                                                                                                               
0210173116438423551                                    20200427OK_70134902020042714001120200428085325100300014117369RECAUDACIO                                0000000152153   00                        
0207013490010000000152153                                                                                                                                                                               
0210109967726427502                                    20200427OK_70135052020042720435620200428085325100300014117369RECAUDACIO                                0000000179035   00                        
0207013505010000000179035                                                                                                                                                                               
0210268990194430186                                    20200428OK_70135082020042810143120200428085325100300014117369RECAUDACIO                                0000000007810   00                        
0207013508010000000007810                                                                                                                                                                               
0210179272547428149                                    20200427OK_70135132020042721570620200428085325100300014117369RECAUDACIO                                0000000063590   00                        
0207013513010000000063590                                                                                                                                                                               
021018443590K426935                                    20200427OK_70135142020042719383720200428085325100300014117369RECAUDACIO                                0000000050000   00                        
0207013514010000000050000                                                                                                                                                                               
0210189535961431303                                    20200428OK_70135352020042812115920200428085325100300014117369RECAUDACIO                                0000000016918   00                        
0207013535010000000016918                                                                                                                                                                               
0210270722156424032                                    20200427OK_70135442020042714560020200428085325100300014117369RECAUDACIO                                0000000055046   00                        
0207013544010000000055046                                                                                                                                                                               
0210265769381426284                                    20200427OK_70135782020042718400920200428085325100300014117369RECAUDACIO                                0000000029753   00                        
0207013578010000000029753                                                                                                                                                                               
0210182394203428154                                    20200427OK_70136702020042721571320200428085325100300014117369RECAUDACIO                                0000000008967   00                        
0207013670010000000008967                                                                                                                                                                               
0210051482646427503                                    20200427OK_70136722020042720440320200428085325100300014117369RECAUDACIO                                0000000157038   00                        
0207013672010000000157038                                                                                                                                                                               
0210262247775425181                                    20200427OK_70136992020042716484820200428085325100300014117369RECAUDACIO                                0000000017028   00                        
0207013699010000000017028                                                                                                                                                                               
0210092533115425180                                    20200427OK_70137022020042716484820200428085325100300014117369RECAUDACIO                                0000000122517   00                        
0207013702010000000122517                                                                                                                                                                               
021025713167K425741                                    20200427OK_70137552020042717445920200428085325100300014117369RECAUDACIO                                0000000002520   00                        
0207013755010000000002520                                                                                                                                                                               
0210190713393431263                                    20200428OK_70137602020042812120520200428085325100300014117369RECAUDACIO                                0000000026511   00                        
0207013760010000000026511                                                                                                                                                                               
0210163161230424029                                    20200427OK_70137892020042714560720200428085325100300014117369RECAUDACIO                                0000000011000   00                        
0207013789010000000011000                                                                                                                                                                               
0210266873395430742                                    20200428OK_70138002020042811183420200428085325100300014117369RECAUDACIO                                0000000068400   00                        
0207013800010000000068400                                                                                                                                                                               
0210121184273428121                                    20200427OK_70138022020042721572020200428085325100300014117369RECAUDACIO                                0000000033400   00                        
0207013802010000000033400                                                                                                                                                                               
0210150247144428904                                    20200427OK_70138122020042723581820200428085325100300014117369RECAUDACIO                                0000000032199   00                        
0207013812010000000032199                                                                                                                                                                               
0210195750971429597                                    20200428OK_70138202020042808431120200428085325100300014117369RECAUDACIO                                0000000024805   00                        
0207013820010000000024805                                                                                                                                                                               
0210199503758427515                                    20200427OK_70138622020042720441020200428085325100300014117369RECAUDACIO                                0000000033163   00                        
0207013862010000000033163                                                                                                                                                                               
0210152478372430751                                    20200428OK_70139732020042811183920200428085325100300014117369RECAUDACIO                                0000000060000   00                        
0207013973010000000060000                                                                                                                                                                               
0210076381488427483                                    20200427OK_70139842020042720441520200428085325100300014117369RECAUDACIO                                0000000011033   00                        
0207013984010000000011033                                                                                                                                                                               
0210267240124431300                                    20200428OK_70141112020042812121620200428085325100300014117369RECAUDACIO                                0000000011245   00                        
0207014111010000000011245                                                                                                                                                                               
0210101820114423545                                    20200427OK_70141142020042714003120200428085325100300014117369RECAUDACIO                                0000000298140   00                        
0207014114010000000298140                                                                                                                                                                               
0210271115032428140                                    20200427OK_70141852020042721573920200428085325100300014117369RECAUDACIO                                0000000136704   00                        
0207014185010000000136704                                                                                                                                                                               
0210091496682426256                                    20200427OK_70142862020042718403220200428085325100300014117369RECAUDACIO                                0000000067641   00                        
0207014286010000000067641                                                                                                                                                                               
0210260120395428151                                    20200427OK_70143152020042721574520200428085325100300014117369RECAUDACIO                                0000000036168   00                        
0207014315010000000036168                                                                                                                                                                               
0210062727918424601                                    20200427OK_70143452020042715521920200428085325100300014117369RECAUDACIO                                0000000059373   00                        
0207014345010000000059373                                                                                                                                                                               
0210144976703427501                                    20200427OK_70144142020042720443120200428085325100300014117369RECAUDACIO                                0000000064663   00                        
0207014414010000000064663                                                                                                                                                                               
0210114575895425182                                    20200427OK_70144312020042716491320200428085325100300014117369RECAUDACIO                                0000000045105   00                        
0207014431010000000045105                                                                                                                                                                               
0210091366347427517                                    20200427OK_70144392020042720443320200428085325100300014117369RECAUDACIO                                0000000105000   00                        
0207014439010000000105000                                                                                                                                                                               
0210263869656430752                                    20200428OK_70144682020042811185520200428085325100300014117369RECAUDACIO                                0000000032003   00                        
0207014468010000000032003                                                                                                                                                                               
0210174968381423548                                    20200427OK_70144772020042714004120200428085325100300014117369RECAUDACIO                                0000000006919   00                        
0207014477010000000006919                                                                                                                                                                               
0210256360985432401                                    20200428OK_70144972020042813535220200428085325100300014117369RECAUDACIO                                0000000044780   00                        
0207014497010000000044780                                                                                                                                                                               
0210157357743425190                                    20200427OK_70147732020042716492420200428085325100300014117369RECAUDACIO                                0000000038000   00                        
0207014773010000000038000                                                                                                                                                                               
0210199779346430207                                    20200428OK_70148512020042810153020200428085325100300014117369RECAUDACIO                                0000000103945   00                        
0207014851010000000103945                                                                                                                                                                               
021026048415K425746                                    20200427OK_70149012020042717453520200428085325100300014117369RECAUDACIO                                0000000033606   00                        
0207014901010000000033606                                                                                                                                                                               
0210262020355425736                                    20200427OK_70149952020042717453820200428085325100300014117369RECAUDACIO                                0000000036214   00                        
0207014995010000000036214                                                                                                                                                                               
0210139096878426325                                    20200427OK_70150642020042718405720200428085325100300014117369RECAUDACIO                                0000000087630   00                        
0207015064010000000087630                                                                                                                                                                               
0210126770820430757                                    20200428OK_70151442020042811191820200428085325100300014117369RECAUDACIO                                0000000042000   00                        
0207015144010000000042000                                                                                                                                                                               
0210113447087431269                                    20200428OK_70152022020042812125020200428085325100300014117369RECAUDACIO                                0000000032740   00                        
0207015202010000000032740                                                                                                                                                                               
021014017548K432406                                    20200428OK_70152122020042813541520200428085325100300014117369RECAUDACIO                                0000000045000   00                        
0207015212010000000045000                                                                                                                                                                               
021015967858K428917                                    20200428OK_70152662020042800013220200428085325100300014117369RECAUDACIO                                0000000187635   00                        
0207015266010000000187635                                                                                                                                                                               
0210263751094431850                                    20200428OK_70153122020042813025220200428085325100300014117369RECAUDACIO                                0000000025879   00                        
0207015312010000000025879                                                                                                                                                                               
021017312774K430210                                    20200428OK_70153602020042810155020200428085325100300014117369RECAUDACIO                                0000000246528   00                        
0207015360010000000246528                                                                                                                                                                               
0210187564255430213                                    20200428OK_70153652020042810155020200428085325100300014117369RECAUDACIO                                0000000042981   00                        
0207015365010000000042981                                                                                                                                                                               
021027098293K431857                                    20200428OK_70153762020042813025320200428085325100300014117369RECAUDACIO                                0000000035000   00                        
0207015376010000000035000                                                                                                                                                                               
0210268995161432392                                    20200428OK_70154822020042813542320200428085325100300014117369RECAUDACIO                                0000000035868   00                        
0207015482010000000035868                                                                                                                                                                               
0210177670596427523                                    20200427OK_70156332020042720452220200428085325100300014117369RECAUDACIO                                0000000087517   00                        
0207015633010000000087517                                                                                                                                                                               
021007272013K424047                                    20200427OK_70156542020042714570820200428085325100300014117369RECAUDACIO                                0000000030149   00                        
